:020000040800F2
:10000000C0030020054700086711000869110008B7
:100010006D11000871110008751100080000000042
:10002000000000000000000000000000791100083E
:100030007B110008000000007D1100087F110008FE
:100040001B4700081B4700081B470008CD45000858
:100050001B4700081B4700081B4700081B470008F8
:100060001B4700081B4700081B4700081B470008E8
:100070001B4700081B4700081B4700081B470008D8
:100080001B4700081B4700081B4700081B470008C8
:100090001B4700081B4700081B4700081B470008B8
:1000A0001B4700081B4700081B4700081B470008A8
:1000B0001B4700081B4700081B4700081B47000898
:1000C0001B4700081B4700081B4700081B47000888
:1000D0001B4700081B4700081B4700081B47000878
:1000E0001B4700081B4700081B47000800F002F8E8
:1000F00000F042F80AA090E8000C82448344AAF180
:100100000107DA4501D100F037F8AFF2090EBAE87D
:100110000F0013F0010F18BFFB1A43F0010318473B
:10012000B07E0000D07E0000103A24BF78C878C1AD
:10013000FAD8520724BF30C830C144BF04680C60ED
:10014000704700000023002400250026103A28BF35
:1001500078C1FBD8520728BF30C148BF0B60704739
:10016000642905F08382732905F0358400207047E7
:100170001FB51FBD10B510BD05F031FC1146FFF7CE
:10018000F7FF00F0DDFF05F04FFC03B4FFF7F2FFCF
:1001900003BC05F057FC000070B505460E4614463A
:1001A0003146284603F06CFA204603F0F6F970BD9C
:1001B0002DE9F05F04460D4616461F46301B401CD5
:1001C0001FFA80FA781B401C1FFA80FB3B46324620
:1001D0002946204603F02AFA4FF000080FE04FF0BE
:1001E000000906E00A9803F0D8F909F101001FFAA6
:1001F00080F9D145F6DB08F101001FFA80F8D845F7
:10020000EDDBFD484088401E83B2FB480088401E5D
:1002100082B20021084603F009FABDE8F09F2DE9FB
:10022000FF4F85B081468A460020049003900798CE
:10023000A0EB09050898A0EB0A06CDF80890CDF8C8
:1002400004A0002D01DD012705E00DB9002702E023
:100250004FF0FF376D42002E02DD4FF0010806E03F
:1002600016B94FF0000802E04FF0FF387642B54271
:1002700001DD2C4600E034464FF0000B21E0019AEE
:1002800091B2029A90B203F005FA049828440490BF
:100290000398304403900498A04205DD0498001BA5
:1002A00004900298384402900398A04205DD039818
:1002B000001B03900198404401900BF101001FFACC
:1002C00080FB601C8345DADD09B0BDE8F08F2DE9C5
:1002D000F04104460D4616461F46DDF81880EA191F
:1002E00091B2A21990B24246FFF756FFEA1991B2B5
:1002F000A21B90B24246FFF74FFFEA1B91B2A21930
:1003000090B24246FFF748FFEA1B91B2A21B90B29F
:100310004246FFF741FFAA1991B2E21990B2424654
:10032000FFF73AFFAA1991B2E21B90B24246FFF7DB
:1003300033FFAA1B91B2E21990B24246FFF72CFF9D
:10034000AA1B91B2E21B90B24246FFF725FFBDE81F
:10035000F0812DE9FF4F81B0824617469846DDF8BF
:1003600038B0002445464FEA4800C0F10306BBF10F
:10037000000F1FD01BE0A14608E04B462246009725
:1003800050460299FFF7A3FF09F10109A945F4DDE1
:10039000002E04DA042000FB0460861D06E0601BCA
:1003A000042101FB006000F10A066D1E641CAC42D2
:1003B000E1DD18E015E02B462246009750460299F1
:1003C000FFF785FF002E04DA042000FB0460861D81
:1003D00006E0601B042101FB006000F10A066D1EAF
:1003E000641CAC42E7DD05B0BDE8F08F2DE9FF4F9E
:1003F00085B081460020049083460798A0EB09054C
:1004000006990898461ACDF80C9006980290002D8F
:1004100001DD012705E00DB9002702E04FF0FF37AD
:100420006D42002E02DD4FF0010806E016B94FF0D4
:10043000000802E04FF0FF387642B54201DD2C465D
:1004400000E034464FF0000A1FE001200090DDE993
:100450001232DDE90210FFF77CFF04982844049073
:10046000B3440498A04205DD0498001B049003984F
:1004700038440390A34504DDABEB040B02984044E1
:1004800002900AF101001FFA80FA601C8245DCDD4F
:1004900009B0BDE8F08F2DE9F04104460D4616463F
:1004A0001F462B46324629462046FFF7B8FE3B46FC
:1004B000224629462046FFF7B2FE3B4632463946E1
:1004C0002046FFF7ACFE3B46324629463046FFF752
:1004D000A6FEBDE8F081F8B504460D4616461F4657
:1004E000464800883B463246294600902046FFF7A2
:1004F0005FFEF8BD2DE9F84F06460F469146984637
:10050000C9F101000FFA80FA4FF0010B4FEA4900E0
:10051000404200B2009000244D4652E0BAF1000F74
:1005200009DB681E85B20098801C00B2009000981C
:1005300050440FFA80FA601C84B20BF102000FFAEB
:1005400080FB0AEB0B000FFA80FA08F0040058B1A8
:100550007A1991B2321990B203F09CF83A1991B21B
:10056000721990B203F096F808F0020058B17A1BA5
:1005700091B2321990B203F08DF83A1B91B2721910
:1005800090B203F087F808F0080058B13A1991B218
:10059000721B90B203F07EF87A1991B2321B90B2BE
:1005A00003F078F808F0010058B13A1B91B2721BC1
:1005B00090B203F06FF87A1B91B2321B90B203F045
:1005C00069F8AC42AADBBDE8F88F2DE9FC5F06466E
:1005D0000F4690469A46DDF83090C8F101000FFAB8
:1005E00080FB012001904FEA4800404200B2009099
:1005F0000024454675E000003001002090000020F6
:10060000BBF1000F09DB681E85B20098801C00B2A8
:100610000090009858440FFA80FB601C84B2019847
:10062000801C00B20190019858440FFA80FB0AF038
:10063000010048B307EB050C0CF1010CCC441FFA88
:100640008CF306EB040C1FFA8CF2A7EB050C1FFAD7
:100650008CF106EB040C1FFA8CF0FFF7E0FD07EBC2
:10066000040C0CF1010CCC441FFA8CF306EB050CC6
:100670001FFA8CF2A7EB040C1FFA8CF106EB050CA9
:100680001FFA8CF0FFF7CBFD0AF0020048B307EB2E
:10069000050C0CF1010CCC441FFA8CF3A6EB040CF6
:1006A0001FFA8CF2A7EB050C1FFA8CF1A6EB040CD9
:1006B0001FFA8CF0FFF7B3FD07EB040C0CF1010CF3
:1006C000CC441FFA8CF3A6EB050C1FFA8CF2A7EBB7
:1006D000040C1FFA8CF1A6EB050C1FFA8CF0FFF747
:1006E0009EFDAC428CDBBDE8FC9F2DE9F041054648
:1006F0000E4617469846069C391B8AB2291988B2BD
:1007000033463146FFF78BFDA8EB040083B2301966
:1007100081B22A462846FFF782FD391B8AB2291981
:1007200088B243464146FFF77AFDA8EB040083B246
:10073000301981B23A463846FFF771FD321991B24D
:100740002A1990B201232246FFF7D4FE321991B242
:100750003A1B90B202232246FFF7CCFEA8EB04021C
:1007600091B23A1B90B204232246FFF7C3FEA8EBD6
:10077000040291B22A1990B208232246FFF7BAFE6A
:10078000BDE8F0812DE9F84307460D4690461E4628
:10079000089CFA480088711C8BB2A8EB04018AB24D
:1007A0003919009088B22946FFF702FD701B401CE2
:1007B000022101FB1400401E80B22A1991B2A8EB5D
:1007C0000402009090B201232246FFF7FEFE701B48
:1007D000401C022101FB1400401E80B22A1991B274
:1007E0003A19009090B202232246FFF7EEFEBDE8D0
:1007F000F8832DE9F04704460D4616461F46DDE90D
:1008000008893B46324629462046FFF708FD4B46FD
:10081000424639463046FFF702FD2B4622464946FE
:100820004046FFF7FCFCBDE8F08702880B88038098
:100830000A8070472DE9FF4F85B000260027BDF8DC
:100840001800BDF82010884207DD08A906A8FFF7A8
:10085000ECFF07A905A8FFF7E8FFBDF82000BDF8E9
:100860004C10884207DD08A913A8FFF7DEFF07A98F
:1008700012A8FFF7DAFFBDF81800BDF82010884273
:1008800007DD08A906A8FFF7D0FF07A905A8FFF70D
:10089000CCFFBDF81800BDF84C10884238D1BDF827
:1008A000140003900490BDF81C00BDF8101088429D
:1008B00003DABDF81C00049008E0BDF81C00BDF888
:1008C0000C10884202DDBDF81C000390BDF8480002
:1008D000BDF81010884203DABDF84800049008E023
:1008E000BDF84800BDF80C10884202DDBDF8480094
:1008F0000390A24800880090BDF81830BDF80C2085
:100900001946BDF81000FFF753FC09B0BDE8F08FA1
:10091000BDF81C00BDF81410A0EB010BBDF82000C1
:10092000BDF81810401A0290BDF84800BDF8141028
:10093000451ABDF84C00BDF81810A0EB0109BDF830
:100940004800BDF81C10A0EB010ABDF84C00BDF832
:100950002010401A0190BDF82000BDF84C108842CC
:1009600002D1BDF8208004E0BDF82000401E1FFA2F
:1009700080F8BDF8184027E0029896FBF0F0BDF82B
:100980001410084480B2049097FBF9F0BDF81410DD
:10099000084480B203905E442F44BDF81000BDF8B7
:1009A0000C10884203DD03A904A8FFF73EFF73483B
:1009B000008823460090BDF80C202146BDF81000A9
:1009C000FFF7F6FB601C84B24445D5DDBDF820007E
:1009D000201A00FB0AF6BDF81800201A00FB05F7E4
:1009E00027E0019896FBF0F0BDF81C10084480B297
:1009F000049097FBF9F0BDF81410084480B20390FE
:100A000056442F44BDF81000BDF80C10884203DD99
:100A100003A904A8FFF709FF58480088234600905F
:100A2000BDF80C202146BDF81000FFF7C1FB601C8B
:100A300084B2BDF84C008442D3DD00BF65E72DE9E8
:100A4000FF4F83B081468A469346DDE910644B48E8
:100A500000880290A6F12000C6B204EBD47009EB26
:100A60006000401E82B20AEB0400401E83B2514671
:100A70004846019402F0DAFD129850BB002525E0AB
:100A80000C2C07D106EB46003D4901EB800010F825
:100A9000058004E03B4800EB061010F805800027B5
:100AA0000DE008F0010018B1584602F076FD02E0B2
:100AB000069802F072FD4FEA6808781CC7B204EB92
:100AC000D471B7EB610FECDB681CC5B2A542D7DB74
:100AD0002DE0002529E00C2C07D106EB4600284923
:100AE00001EB800010F8058004E0264800EB0610BA
:100AF00010F80580002711E02048A0F800B008F0A9
:100B0000010038B10AEB050291B209EB070290B27D
:100B100002F0C0FD4FEA6808781CC7B204EBD4713C
:100B2000B7EB610FE8DB681CC5B2A542D3DB134904
:100B30000298088014484088401E83B212480088FA
:100B4000401E82B20021084602F070FD07B0BDE8E9
:100B5000F08F2DE9FE4306460F4615461C46DDF88C
:100B6000288025E008480088401EB04204DB064883
:100B70004088401EB84209DABDE8FE83900000209C
:100B8000605A0008D45E00083001002020788DE80B
:100B90002101FC480388FC48028839463046FFF7AB
:100BA0004EFF284605EBD07106EB61018EB2641C46
:100BB00020787E2802DC20782028D3DA00BFDBE70B
:100BC00010B50246012000E050430B1EA1F10104C4
:100BD000E1B2F9D110BD2DE9FF4F83B00746914630
:100BE0001E46109C4FF0000A002543E0701B401E7B
:100BF000C1B20A20FFF7E4FFB9FBF0F00A21B0FB15
:100C0000F1F201FB1208BAF1000F1BD1701EA842CD
:100C100018DDB8F1000F13D100202021A346CDE943
:100C20000014029004EBDB71491001FB057188B2DE
:100C3000D4490B88D4490A880499FFF700FF17E0CC
:100C40004FF0010A002108F13000C0B2A346CDE9FF
:100C50000141009004EBDB71491001FB057188B282
:100C6000C8490B88C8490A880499FFF7E8FE00BF05
:100C7000681CC5B2B542B9DB07B0BDE8F08F2DE9FD
:100C8000FC5F0546884691469A46DDF830B00095EF
:100C90004B20019000245FE004EB0410BB4911F8E5
:100CA00010009BF80010884253D104EB0410B749A0
:100CB00001EB400040789BF80110884249D108F1CF
:100CC0000F0083B205F10F0082B24146284602F0C0
:100CD000ADFC00263BE0002734E00D9890B904EB12
:100CE0000410AA4901EB4000801C805D802139413D
:100CF000084018B1484602F050FC21E0504602F08E
:100D00004CFC1DE0A048A0F8009004EB04109F49A3
:100D100001EB4000801C805D80213941084018B102
:100D20004146284602F0B6FC681C85B20098281A95
:100D3000102805D1009D08F101001FFA80F803E09A
:100D4000781CC7B2082FC8DB00BF701CC6B2202EAB
:100D5000C1DB00BF601C84B2019884429CDB8C48DC
:100D60004088401E83B28A480088401E82B200211B
:100D7000084602F05BFCBDE8FC9F2DE9FC5F0546E0
:100D8000884691469A46DDF830B0009507200190DC
:100D9000002467E004EB840000EB44107D4911F867
:100DA00010009BF80010884259D104EB840000EB3E
:100DB0004410784901EB400040789BF801108842CC
:100DC0004DD108F1170083B205F1170082B24146F8
:100DD000284602F02BFC00263FE0002738E00D9863
:100DE000A0B904EB840000EB44106A4901EB400019
:100DF000801C805D80213941084018B1484602F0CE
:100E0000CCFB23E0504602F0C8FB1FE05E48A0F890
:100E1000009004EB840000EB44105E4901EB4000BD
:100E2000801C805D80213941084018B14146284628
:100E300002F030FC681C85B20098281A182805D1E9
:100E4000009D08F101001FFA80F803E0781CC7B28A
:100E5000082FC4DB00BF701CC6B2482EBDDB00BF2C
:100E6000601C84B20198844294DB49484088401E4B
:100E700083B247480088401E82B20021084602F033
:100E8000D5FBBDE8FC9F2DE9FC5F054688469146F1
:100E90009A46DDF830B000950420019000245FE010
:100EA00004EB84103C4911F810009BF800108842B4
:100EB00053D104EB8410384901EB400040789BF893
:100EC0000110884249D108F11F0083B205F11F00CB
:100ED00082B24146284602F0A9FB00263BE00027EB
:100EE00034E00D9890B904EB84102B4901EB4000DD
:100EF000801C805D80213941084018B1484602F0CD
:100F00004CFB21E0504602F048FB1DE01E48A0F8D3
:100F1000009004EB8410204901EB4000801C805DB0
:100F200080213941084018B14146284602F0B2FB01
:100F3000681C85B20098281A202805D1009D08F168
:100F400001001FFA80F803E0781CC7B2082FC8DB45
:100F500000BF701CC6B2802EC1DB00BF601C84B213
:100F6000019884429CDB0A484088401E83B20848AE
:100F70000088401E82B20021084602F057FBBDE8FF
:100F8000FC9F00009200002090000020C464000834
:100F900030010020BA6E0008C07000082DE9FF4F34
:100FA00083B0064688469146DDE91147109DB2465A
:100FB0004FF0000B71E0BBF1000F40D104EBD47196
:100FC0005E4A1288A2EB6101B14204DB5B494988A9
:100FD000091B414502DA07B0BDE8F08F2878802868
:100FE00002DD4FF0010B58E028780D2806D108EB00
:100FF00004001FFA80F856466D1C1EE0102C0DDD13
:10100000102128788DE883004A4641463046069BE9
:10101000FFF715FD06F1080086B20EE028788DE88E
:1010200091004A4641463046069BFFF708FD2046A0
:1010300004EBD07106EB61018EB26D1C2DE03F48D0
:101040000088001BB04204DB3C484088001B404540
:1010500000DAC0E74FF0000B202C08D1CDE9005793
:101060004A4641463046069BFFF70DFF12E0182C1A
:1010700008D1CDE900574A4641463046069BFFF766
:101080007CFE07E0CDE900574A4641463046069BC4
:10109000FFF7F5FDAD1C301986B2287800288AD1FB
:1010A00000BF98E72DE9FE4F0E4617469846DDE94A
:1010B0000D9A0C9C204604F0B1FB85B21F490988AB
:1010C000A1EBC50000EBD071C1F34F0B43463A468C
:1010D000314658468DE81006FFF760FFBDE8FE8FE9
:1010E0002DE9F04706460F46154607F1270083B263
:1010F00006F1270082B23946304602F097FA002402
:101100000AE015F8149005EB440090F8018049EAD4
:10111000082002F042FA641CB4F5C86FF1DB0748FE
:101120004088401E83B205480088401E82B20021DC
:10113000084602F07BFABDE8F0870000300100208D
:101140004FF4A06003F0F8FA00F089F8482004F0AA
:10115000D3F902F062FB03F05BF803F0D5F901E08C
:1011600002F09CF9FCE7704700BFFEE700BFFEE716
:1011700000BFFEE700BFFEE770477047704770474B
:101180000CB50020019000906C48006840F480305D
:101190006A49086000BF6948006800F400300090A8
:1011A0000198401C0190009818B90198B0F5A06F03
:1011B000F1D16248006800F4003010B101200090C5
:1011C00001E0002000900098012843D15C480068AD
:1011D00040F010005A4908600846006820F00300FB
:1011E00008600846006840F0020008605348406804
:1011F000524948600846406848600846406840F4E4
:10120000806048600846406820F47C1048600846CA
:10121000406840F4E81048600846006840F080707C
:10122000086000BF4548006800F000700028F9D051
:101230004248406820F00300404948600846406842
:1012400040F00200486000BF3C48406800F00C00DD
:101250000828F9D10CBD10B5FFF792FF10BD10B5ED
:101260003648006840F0010034490860084640688C
:10127000344908403149486008460068324908400E
:101280002E4908600846006820F48020086008465F
:10129000406820F4FE0048604FF41F008860FFF7AC
:1012A000DAFF4FF000602949086010BD10B5002139
:1012B00000200022214B5B6803F00C0121B10429BE
:1012C00006D0082928D107E0214B224C236027E0D3
:1012D0001F4B204C236023E0184B5B6803F4701015
:1012E000164B5B6803F48032022303EB904022B973
:1012F000194B4343174C23600DE0104B5B6803F41C
:10130000003323B1144B4343124C236003E0104BD2
:101310004343104C236003E00D4B0E4C236000BF91
:1013200000BF064B5B68C3F303130C4CE15C094B35
:101330001B68CB40074C236010BD0000001002402A
:10134000002002400000FFF8FFFFF6FE08ED00E07D
:1013500000127A000000002000093D000400002077
:101360003EB504464FF6FF7002F0ACF91F20009026
:10137000FE480288142300210846FEF719FF4FF6A5
:10138000FF70FB490880012010211F234FF6FF72D8
:10139000CDE90041029002210020FFF783FE3EBD0F
:1013A0001FB5F448F4A1026801A804F0FBF84FF659
:1013B000FF70EF490880012001AB1022D921009075
:1013C0003820FFF7C6FB1FBD2DE9F04706460C4647
:1013D00015461F46DDE90889B6F5FD6F1BDB40F6B3
:1013E0003300864217DC012C15DB0C2C13DC012D9D
:1013F00011DB1F2D0FDC002F0DDB182F0BDCB8F1DC
:10140000000F08DBB8F13C0F05DCB9F1000F02DB7F
:10141000B9F13C0F02DD0020BDE8F0871F2D0FD190
:10142000012C0DD0032C0BD0052C09D0072C07D094
:10143000082C05D00A2C03D00C2C01D00020EBE79F
:10144000022C07D1B0B202F06AFF18B91D2D01D1EC
:101450000020E1E702F080FFC9488088B04201DD4A
:101460000020D9E7C6488088B0422DD1C448807991
:10147000A04201DD0020CFE7C1488079A04223D1FE
:10148000BF48C079A84201DD0020C5E7BC48C0794B
:10149000A84219D1BA480078B84201DD0020BBE764
:1014A000B7480078B8420FD1B5484078404501DDD3
:1014B0000020B1E7B2484078404505D1B048807877
:1014C000484501DD0020A7E70120A5E770B58EB0F3
:1014D00004460D461646AB48ABA1026801A804F0CD
:1014E00061F8AB48C0790090A94883798288A9A1A6
:1014F00009A804F057F8A64880780090A4484378DB
:101500000278A8A104A804F04DF84FF6FF7098499E
:101510000880012009AB3246691C009004F10A00E2
:10152000FFF717FB012004AB324605F111010090D3
:1015300004F11200FFF70DFB012001AB324605F16B
:101540002101009004F11E00FFF703FB0EB070BDF7
:101550002DE9F04780460025002400260027A146FB
:1015600002F0FAFE8648407800EB080584480478CB
:10157000C6798779B0F804903C2D13DB3C3D641CA0
:10158000182C0FDB183C761C81488079401E894955
:10159000085CB04206DA01267F1C0C2F02DD012711
:1015A00009F101098449A1F804908F71CE710C7082
:1015B0004D70734880788870BDE8F087F0B58BB0C7
:1015C00005460E4617461C4633462A467BA106A80A
:1015D00003F0E8FF23463A467CA101A803F0E2FFAE
:1015E0007E48006884421ED01F2073234FF49072FF
:1015F0004B210090C020FEF7DBFD4FF6FF705C49E9
:101600000880012006AB10224B210090C020FFF77C
:10161000A0FA012001AB102263210090C020FFF747
:1016200098FA6E4804600BB0F0BD2DE9F84F4FF00A
:101630000008C14602F090FE5548808850498988CC
:1016400088427CDC524880884D498988884205D18F
:101650004F4880794A498979884275DC4C488088AE
:101660004749898888420BD149488079444989791A
:10167000884205D14648C0794149C979884263DC2E
:10168000434880883E498988884211D14048807902
:101690003B49897988420BD13D48C0793849C9799D
:1016A000884205D13A4800783549097888424BDCB0
:1016B0003748808832498988884217D134488079F0
:1016C0002F498979884211D13148C0792C49C9798B
:1016D00088420BD12E48007829490978884205D1E3
:1016E0002B4840782649497888422DDC2848808854
:1016F0002349898888421DD12548807920498979E4
:10170000884217D12248C0791D49C979884211D130
:101710001F4800781A49097888420BD11C48407844
:1017200017494978884205D1194880781449897841
:10173000884209DC00231A461946184600E003E0F7
:10174000FFF73CFFBDE8F88F114880880C49898875
:10175000A0EB010A0E48807909498979401A009066
:101760000B48C0790649C9793AE0000030010020F1
:1017700090000020B0000020253264204D696E00EA
:1017800040010020B400002025642044617900005D
:101790004A010020253034642D253032642D253057
:1017A00032640000253032643A253032643A253004
:1017B00032640000787F0008540100202533642043
:1017C00044617920253264204800000025326420DD
:1017D0004D696E2020253264205300008C000020CB
:1017E000A0EB010BFE480078FE490978451AFC4839
:1017F0004078FC494978461AF9488078F94989784F
:10180000471A40F26D100AFB00F4F648B0F8048065
:1018100007E01FFA88F002F082FD00B1641C08F1B5
:101820000108EF4880884045F3DCEE4890F80690C8
:1018300006E0A9F10100EC49085C044409F1010942
:10184000E74880794845F4DC5C44002F01DA3C37F6
:10185000761E002E01DA3C366D1E002D01DA183599
:10186000641E3B46324629462046FFF7A7FE00BFCE
:1018700068E770B594B004460D46164602F06CFD5C
:10188000D8488078D9490968884263D01C22D84951
:1018900005A803F0E2FFD348007A05A951F82020FB
:1018A000D4A10CA803F07EFECE488078CD494978BB
:1018B000CC4A1278CB4BDB79CDE90032CDE902106E
:1018C000C84883798288CCA10FA803F06BFE1F2043
:1018D000AB1904F1B802294600902046FEF768FCD7
:1018E0001F20AB194FF4A0722946009004F58070B8
:1018F000FEF75EFC4FF6FF70C749088001200FAB72
:101900003246294600902046FFF723F9C348006875
:1019100048B90120C2A332462946009004F1C8000C
:10192000FFF717F908E00120C1A3324629460090CD
:1019300004F1C800FFF70DF901200CAB324629462F
:10194000009004F19600FFF704F9A6488078A749B3
:10195000086000BF14B070BD2DE9FE4F4FF0000AC3
:10196000D0460026002500240027A14602F0F4FC02
:101970009C48C0799A49C979884240D19948808861
:101980009749898888423AD19648807994498979DB
:10199000884234D1934800789149097888422ED101
:1019A000904840788E494978884228D18D4880787F
:1019B0008B498978884222D1002097490880FA23F0
:1019C0004FF49172C821BE20FEF765FD1F20924999
:1019D0000880F92340F22112C721BD20FEF77BFDCC
:1019E0004FF6FF708C490880012095A31022D92161
:1019F0000090E820FFF7ADF801208849086078489A
:101A000090F802A040788F49096800EB01087448FB
:101A10000678C57984798788B8F13C0F12DBA8F184
:101A20003C08761C182E0DDB183E6D1C8079401E7C
:101A30006D49085CA84205DA0125641C0C2C01DD07
:101A400001247F1C67488088B84273D1654880793B
:101A5000A0426FD16348C079A8426BD16148007839
:101A6000B04267D15F484078404563D15D48807897
:101A700050455FD1002068490880FA234FF49172E5
:101A8000C821BE20FEF707FD4FF478406249088068
:101A9000F92340F22112C721BD20FEF71CFD4FF6AD
:101AA000FF705D490880012067A31022D9210090B2
:101AB000E420FFF74EF800205849086063480068AA
:101AC0000544601E4849085CA84216DAA146601E1B
:101AD000085C95FBF0F00444A9F10100085C95FB5B
:101AE000F0F100FB11550C2C07DD0C2094FBF0F1FC
:101AF00000FB114494FBF0F00744EAB2E1B2B8B243
:101B000002F0D3FB834633462A462146CDE9008ABC
:101B10000290384602F0DFFD1F203F4908807723FE
:101B2000812245211D20FEF7D6FC102246211E20D1
:101B3000FFF7CCFCBDE8FE8F8CB00020089044A0DD
:101B4000FFF70EFC002034490880012041A3102239
:101B50002C2100900846FEF7FCFF00202E4908804B
:101B60007823822246211E20FEF795FC1F202A4959
:101B700008807723812245211D20FEF7ACFC10222E
:101B800046211E20FFF7A2FC0020234908800120E7
:101B900033A310222C210090CA20FEF7DAFF002088
:101BA0001D49088078234FF491724621BE20FEF72C
:101BB00072FC1F2018490880772340F2211245212A
:101BC000BD20FEF788FC002013490880012027A3D0
:101BD0001022AE2100903020FEF7BBFF00204BE02A
:101BE0004A01002040010020787F00088800002082
:101BF0004C7F000825730000253034642D253032D9
:101C0000642D2530326420253032643A2530326428
:101C10003A2530326400000090000020600000206F
:101C20005354415455533A4E6F726D616C0000002D
:101C30005354415455533A576F726B696E670000A5
:101C40004F4E0000B00000204F464600B400002078
:101C5000000000004E6578742054696D6500000036
:101C6000436F756E74446F776E0000004475726147
:101C700074696F6E00000000FE490880FA2382221A
:101C8000C8211E20FEF707FC1F20FA490880F9230F
:101C90008122C7211D20FEF71EFCFFF781FB0020DB
:101CA000F44908800120F4A31022AE210090C42042
:101CB000FEF74FFF0020EF490880FA234FF491729E
:101CC000C821BE20FEF7E7FB4FF47840E9490880C1
:101CD000F92340F22112C721BD20FEF7FCFB4FF68D
:101CE000FF70E44908800120AFF2A4031022D9213B
:101CF0000090E420FEF72DFF1F20DE49088090238E
:101D00004FF4A0728E210020FEF7E5FB1F20D94979
:101D1000088040F20B13A12214219F20FEF7DBFB69
:101D20001F20D44908804FF486734FF4A072991E87
:101D30000020FEF7D0FB4FF47840CE490880AD2359
:101D4000C8227B217820FEF7C6FB4FF6FF70C949F9
:101D500008800120CBA310228C2100908820FEF760
:101D6000F8FE01201E2300224FF49B710090E12019
:101D7000FEF7EFFA4FF6FF70BE4908800120C3A3BB
:101D800010224FF497710090D920FEF7E2FE012057
:101D90001E2300224FF49B7100904FF49170FEF7C8
:101DA000D8FA4FF6FF70B34908800120B8A310227B
:101DB0004FF4977100904FF48D70FEF7CAFE01202A
:101DC0001E23002240F2771100901846FEF7C1FA58
:101DD0004FF6FF70A74908800120AEA3102240F201
:101DE0006F1100901A20FEF7B4FE01201E2300227E
:101DF00040F2771100905F20FEF7ABFA4FF6FF70CC
:101E00009C4908800120A4A3102240F26F11009089
:101E10005B20FEF79EFE01201E23002240F2771178
:101E20000090A020FEF795FA4FF6FF7091490880C8
:101E300001209AA3102240F26F1100909C20FEF71F
:101E400088FE01201E23002240F277110090E1203D
:101E5000FEF77FFA4FF6FF7086490880012090A3B5
:101E6000102240F26F110090DD20FEF772FE01207B
:101E70001E23002240F2771100904FF49170FEF77C
:101E800068FA4FF6FF707B490880012085A3102275
:101E900040F26F1100904FF48F70FEF75AFE012050
:101EA0001E2300224FF4DC7100901846FEF751FA11
:101EB0004FF6FF706F49088001207BA310224FF47A
:101EC000D87100901A20FEF744FE01201E23002244
:101ED0004FF4DC7100905F20FEF73BFA4FF6FF7085
:101EE00064490880012071A310224FF4D87100903A
:101EF0005B20FEF72EFE01201E2300224FF4DC7132
:101F00000090A020FEF725FA4FF6FF70594908808F
:101F1000012067A310224FF4D87100909C20FEF797
:101F200018FE01201E2300224FF4DC710090E120F6
:101F3000FEF70FFA4FF6FF704E49088001205DA3AF
:101F400010224FF4D8710090DD20FEF702FE012030
:101F50001E2300224FF4DC7100904FF49170FEF7C5
:101F6000F8F94FF6FF7043490880012052A3102270
:101F70004FF4D87100904FF48F70FEF7EAFD01F036
:101F80008BBAFFF7E9FC102202210A20FFF771FC4F
:101F9000FFF74BFB4948006810B102F04CF901E033
:101FA00002F04FF9464880884649898888425FD1C7
:101FB00043488079434989798842F8D14048C079BB
:101FC0004049C9798842F2D13D4800783D490978B5
:101FD0008842ECD13A4840783A494978884247D11A
:101FE0003748807837498978884241D13648006837
:101FF00001283DD14FF478401E490880AD23C82206
:102000007B217820FEF767FA4FF6FF7019490880A8
:1020100001201CA310228C2100908820FEF799FD3E
:102020004FF6FF7040F24F13AA2240F21D110090AC
:102030000A20FEF7BDF81F200E4908807723812271
:1020400045211D20FEF747FA102246211E20FFF7EA
:102050003DFA4FF6FF7040F23B136E2240F21D1125
:1020600000901E20FEF7A4F81F20024908802DE0F2
:102070004FE000009000002048616E6420537769B3
:10208000746368004C4F434B454400003C2D0000F6
:102090004F4B000030000000310000003200000013
:1020A000330000003400000035000000360000005E
:1020B00037000000380000003900000060000020F8
:1020C00040010020540100206C000020F9238122EF
:1020D000C7211D20FEF7FFF9FFF762F90020FE4936
:1020E0000860FE490860FE490860FE490860FE4934
:1020F0000860089007E00021FC4A089842F8201088
:102100000898401C089008981428F4DB0020F8492F
:102110000860F848406807908047F648007C00F067
:10212000010000287ED0F0480068012802D102207A
:10213000FFF70EFAE948006801281AD0E64800685F
:10214000012816D0EB488089002812DDE9488089F3
:1021500014280EDAE448006801280AD1E54800890D
:10216000002806DDE3480089E62802DA0120E2497A
:102170000860E0488089C82813DDDE488089FA2895
:102180000FDAD948006801280BD1DA480089BE2847
:1021900007DDD8480089B0F5917F02DA0120D749E0
:1021A0000860D44880897B280EDDD2488089AD281C
:1021B0000ADAD0480089782806DDCE480089C82888
:1021C00002DA0120CE490860C448006801281DD009
:1021D000C3480068012819D0CA480068012815D0F2
:1021E000C4488089462811DDC248808978280DDAE4
:1021F000C04800891E2809DDBE480089822805DA0A
:10220000B9480068012801D1BF490860B448006896
:1022100001281FD0B048006801281BD0B9480068C9
:10222000012800E0DDE015D0B2488089C82811DD22
:10223000B0488089FA280DDAAE4800891E2809DDE9
:10224000AC480089822805DAA7480068012801D136
:10225000AE490860A748008900281DDBA548008911
:102260003C2819DCA3488089B0F5A87F07DBA1488A
:102270008089B0F5C57F02DC0A20A54908609D4829
:102280008089B0F5C87F07DD9A488089B0F5E67F80
:1022900002DA05209E4908609648008941281DDB26
:1022A000944800897D2819DC92488089B0F5A87F80
:1022B00007DB90488089B0F5C57F02DC0120944996
:1022C00008608C488089B0F5C87F07DD894880891F
:1022D000B0F5E67F02DA06208D490860854800895E
:1022E00082281DDB83480089BE2819DC814880894B
:1022F000B0F5A87F07DB7F488089B0F5C57F02DC99
:102300000220834908607B488089B0F5C87F07DDDB
:1023100078488089B0F5E67F02DA07207C490860BA
:1023200074480089C3282ADB72480089FF2826DC0C
:1023300070488089B0F5A87F07DB6E488089B0F5CA
:10234000C57F02DC0320724908606A488089B0F5C5
:10235000C87F07DD67488089B0F5E67F02DA08208C
:102360006B49086063488089B0F5877F07DD614865
:102370008089B0F5A57F02DA0120664908605D48D2
:102380000089B0F5827F7DDB5A480089B0F5A07FD7
:1023900078DC58488089B0F5A87F07DB55488089EC
:1023A000B0F5C57F02DC0420594908605148808996
:1023B000B0F5C87F07DD4F488089B0F5E67F02DAC7
:1023C0000920534908604B488089B0F5877F59DD63
:1023D00048488089B0F5A57F54DA01204E4908604D
:1023E000CDE54548006801282BD13F480068012809
:1023F00027D13948006820BB39480068D0B901208E
:102400003749086000204549088040F23B13AA2262
:1024100040F21D110A20FEF75EF84FF6FF703F49AB
:10242000088001203EA310224FF4927100900E20EC
:10243000FEF78FFB002030490860344908603249BC
:1024400008602E480068012876D1274800680128D6
:1024500072D13848006848BB012036490860002026
:102460002E490880FA234FF49172C821BE20FEF74E
:1024700012F81F2029490880F92340F22112C721B0
:10248000BD2000E0FEE3FEF726F84FF6FF7023497B
:1024900008800120AFF658031022D9210090E820CF
:1024A000FEF757FB01201749086058E0002021493A
:1024B00008601A490880FA234FF49172C821BE209F
:1024C000FDF7E9FF4FF4784014490880F92340F202
:1024D0002112C721BD2030E048000020500000201C
:1024E000680000203C0000206C000020D800002084
:1024F00054000020980000206400002034000020D8
:102500003800002060000020440000204C00002023
:1025100040000020580000205C00002090000020B7
:10252000303030302D30302D30302030303A3030B7
:102530003A3030003000002014E0FDF7CCFF4FF6B9
:10254000FF70FE4908800120AFF604131022D92144
:102550000090E420FEF7FDFA0020F9490860002011
:10256000F8490860F848006801287DD1F7480068FC
:1025700060BBF748006828BB0020F64908604FF6AA
:10258000FF7040F24F13AA2240F21D1100900A2062
:10259000FDF70EFE0020E949088040F23B13AA2215
:1025A00040F21D110A20FDF796FF4FF6FF70E34938
:1025B00008800120E8A310224FF4927100900E20B1
:1025C000FEF7C7FA0120E149086057E0E0480068DB
:1025D000012850D14FF47840D8490880AD23C82253
:1025E0007B217820FDF777FF4FF6FF70D3490880F5
:1025F0000120AFF2705310228C2100908820FEF74A
:10260000A8FA4FF6FF7040F24F13AA2240F21D11B4
:1026100000900A20FDF7CCFD1F20C84908807723D1
:10262000812245211D20FDF756FF102246211E2044
:10263000FEF74CFF4FF6FF7040F23B136E2240F264
:102640001D1100901E20FDF7B3FD1F20BB4908801F
:10265000F9238122C7211D20FDF73DFFFEF7A0FED3
:102660000020BE49086000E00BE0BD490860BD499C
:102670000860B74908600020B44908600020B249EA
:102680000860B948006800287ED0B4480068012876
:1026900061D1B048006813285EDA00200090AD4890
:1026A0000088162101EBC00080B20790A94800887D
:1026B0000E2101EBC00080B24FF49A7306904FF4E4
:1026C0009271079AFDF774FD1F209C490880002035
:1026D000A6490880A44800680A2190FBF1F201FB9A
:1026E00012000790102000909A4800880E2101EBFC
:1026F000C00080B2012306904FF49271079AFEF752
:102700006AFA994800680A2190FBF1F201FB120174
:102710009748904A126840F822108E480068401C82
:102720008C4908600846006804280FD008460068F5
:1027300007280BD0084600680A2807D0084600681A
:102740000D2803D008460068102861D18148006830
:10275000401C804908605BE07E480068152857DA15
:102760007C480068132190FBF1F201FB12004E211E
:1027700001EBC00080B2079076480068132190FBFF
:10278000F1F201FB120000E05BE1462101EBC00029
:1027900080B2069000204FF4A27300904FF49A711B
:1027A000DDE90602FDF704FD1F20644908800020D2
:1027B0006E4908806C4800680A2190FBF1F201FB29
:1027C0001200079063480068132190FBF1F201FBAF
:1027D0001200462101EBC00080B2069010200123B8
:1027E00000904FF49A71DDE90602FEF7F4F95E48B5
:1027F00000680A2190FBF1F201FB12015C48554A86
:10280000126840F8221053480068401C5149086083
:1028100054480068012861D14E48006813285DDAE9
:10282000002000904B480088162101EBC00080B2C8
:102830000790484800880E2101EBC00080B24FF499
:102840009A7306904FF49271079AFDF7B1FC1F201E
:102850003A490880002045490880434800680A2119
:1028600090FBF1F201FB1200079010200090394814
:1028700000880E2101EBC00080B2012306904FF4C6
:102880009271079AFEF7A7F9374800680A2190FB72
:10289000F1F201FB120136482E4A126840F822106C
:1028A0002C480068401C2B49086008460068042832
:1028B0000FD00846006807280BD0084600680A2891
:1028C00007D0084600680D2803D008460068102885
:1028D00004D120480068401C1E4908602048006858
:1028E000012865D11B480068022861DA00200090A9
:1028F000184800883A2101EBC00080B207901548C3
:102900000088322101EBC00080B24FF49A73069028
:102910004FF49271079AFDF74BFC1F20074908807E
:10292000002012490880104800680A2190FBF1F24B
:1029300001FB12000790102000901BE09000002087
:102940006000002034000020380000203C000020FF
:102950006C000020540000207C0000004800002093
:10296000500000206800002040000020920000205D
:10297000D8000020FE480088322101EBC00080B260
:10298000012306904FF49271079AFEF724F9F94853
:1029900000680A2190FBF1F201FB1201F648F44AAB
:1029A000126840F82210F2480068401CF0490860A4
:1029B000F2480068012841D1ED48006806283DDA58
:1029C000EF480068D0BB00200090E94800881E2135
:1029D00001EBC00080B20790E5480088162101EBAA
:1029E000C00080B24FF49A7306904FF49271079A28
:1029F000FDF7DEFB4FF6FF70E249088001200090F2
:102A0000DB480088162101EBC00080B2DEA3102253
:102A10004FF492710790FEF79CF8D64800680A219F
:102A200090FBF1F201FB1200D349D14A126841F840
:102A30002200CF480068401CCD4908600020CD49E5
:102A40000860D2480068E0B3D1480068C8BBCC48F1
:102A50000068012843D1CF48006890BBCE48006889
:102A600080BB4FF47840C7490880772381224521F5
:102A70001D20FDF730FD102246211E20FEF726FD09
:102A80000020C04908804FF4A573AA2240F21D110E
:102A90000A20FDF720FD4FF6FF70BA49088001209B
:102AA000AFF2845310224FF4927100900E20FEF783
:102AB00050F80120B9A310224FF49A7100904620DB
:102AC00001E00CE004E0FEF744F80120B2490860A0
:102AD0000020B4490860B4490860AC490860B248B5
:102AE0000068E0B3AC480068C8BBA548006801288E
:102AF00047D1A848006890BBA548006880BB4FF448
:102B00007840A0490880F9238122C7211D20FDF7C4
:102B1000E2FCFEF745FC4FF6FF7040F23B13AA22A1
:102B200040F21D1100900A20FDF742FB002095495C
:102B3000088040F23B136E2240F21D111E20FDF76B
:102B4000CAFC4FF6FF708F490880984898A1026828
:102B500009A802F027FD012009AB102201E010E0D6
:102B600008E04FF4927100903220FDF7F2FF01204F
:102B70008749086000208B4908608B4908608349B9
:102B800008608E48006800287DD0834800680128CE
:102B900057D177480068132854DC7548006800282E
:102BA00004DD73480068401E714908607048006881
:102BB00004280FD06E48006807280BD06C480068C6
:102BC0000A2807D06A4800680D2803D068480068C2
:102BD000102804D166480068401E6549086000203E
:102BE0006549634A126841F82200009060480088F5
:102BF000162101EBC00080B207905D4800880E21CD
:102C000001EBC00080B24FF49A7306904FF49271BA
:102C1000079AFDF7CDFA4FF6FF705A490880002059
:102C20006749088010200090514800880E2101EB70
:102C3000C00080B2012300224FF492710790FDF78B
:102C4000CAFF53E04A48006815284FDC484800682E
:102C5000002804DD46480068401E45490860002100
:102C60004548434A126840F8221041480068132141
:102C700090FBF1F201FB12004E2101EBC00080B28B
:102C8000079001E0A4E121E139480068132190FB9D
:102C9000F1F201FB1200462101EBC00080B2069068
:102CA00000204FF4A27300904FF49A71DDE9060200
:102CB000FDF77EFA4FF6FF70324908800020404948
:102CC00008802B480068132190FBF1F201FB1200F1
:102CD000462101EBC00080B20790102001230022A2
:102CE0004FF49A7100900798FDF775FF2948006826
:102CF00001287FD11E480068002804DD1C480068B8
:102D0000401E1B4908601A48006804280FD0184864
:102D1000006807280BD0164800680A2807D0144816
:102D200000680D2803D012480068102804D110480C
:102D30000068401E0E49086000200F490C4A1268C6
:102D400041F8220000900A480088162101EBC000DB
:102D500080B20790064800880E2101EBC00080B2C7
:102D60004FF49A7306904FF49271079A2AE041E06B
:102D70005400002040000020D80000203C0000202B
:102D80006C000020900000202A0000004400002079
:102D9000500000206800002048000020303020440F
:102DA00061790000640000204C000020B000002089
:102DB000253032643A4D696E000000005800002052
:102DC00092000020FDF7F4F94FF6FF70FE490880ED
:102DD0000020FE49088010200090FD4800880E2148
:102DE00001EBC00080B2012300224FF492710790E2
:102DF000FDF7F1FEF748006801283AD1F448006871
:102E0000002804DDF2480068401EF14908600020F7
:102E1000F149EF4A126841F822000090EC4800881E
:102E20003A2101EBC00080B20790E94800883221C6
:102E300001EBC00080B24FF49A7306904FF4927188
:102E4000079AFDF7B5F94FF6FF70DF4908800020BB
:102E5000DE49088010200090DD480088322101EB17
:102E6000C00080B2012300224FF492710790FDF759
:102E7000B2FEDA480068012825D1D548006800284C
:102E800004DDD3480068401ED14908600021D248C3
:102E9000CF4A126840F8221000200090CC480088E9
:102EA0001E2101EBC00080B20790C948008816219E
:102EB00001EBC00080B24FF49A7306904FF4927108
:102EC000079AFDF775F90020C5490860C5480068F4
:102ED00000287DD0C448006801287AD1BC48006829
:102EE000152876D10020BA490860BF490860BA4861
:102EF000806CB949496C01EB810100EB4100B64996
:102F0000C96BB54A926B02EB820201EB4201CDE93B
:102F10000010B148006BB049C96A01EB810100EBB8
:102F200041000790AC48406AAB49096A01EB810156
:102F300000EB41000690A8488069A749496901EB68
:102F4000810100EB41000590A34800684FF47A71BD
:102F50004843A149496801EBC10202EB011100EBB2
:102F600081009D49896801EB810100EB41009A498C
:102F7000C9680844049005A90EC9FEF725FA48B3AC
:102F8000954890F82400944991F8201001EB8101B4
:102F900000EB4100C0B206908F48007E8E49097D4B
:102FA00001EB810100EB4100C0B205908A48008826
:102FB0004FF47A7148438849898801EBC10202EBDA
:102FC000011100EB81008449098901EB810102E0D4
:102FD00062E2A9E069E000EB41007F498989084489
:102FE00080B20490DDE9051201F05FF97A4907909B
:102FF000896C794A526C02EB820201EB4201764AFB
:10300000D26B754B9B6B03EB830302EB4302CDE961
:10301000002102907048006B6F49C96A01EB810181
:1030200000EB410006906C48406A6B49096A01EB6D
:10303000810100EB4100059067488169406900EB20
:10304000800001EB40000490634800684FF47A71FF
:1030500048436149496801EBC10202EB011100EBF1
:1030600081005D49896801EB810100EB41005A490B
:10307000C9680844039004A90EC901F02CFB564806
:10308000006D5549C96C01EB810100EB41005749C6
:1030900008604FF6FF704FF4A573AA2240F21D118D
:1030A00000900A20FDF784F822E04FF6FF704FF4FD
:1030B000A573AA2240F21D1100900A20FDF778F8AE
:1030C00000204149088040F23B13AA2240F21D1122
:1030D0000A20FDF700FA4FF478403B4908800120B0
:1030E00043A310224FF4927100904620FDF731FD6A
:1030F0001F20354908807723812245211D20FDF7B7
:10310000EAF9102246211E20FEF7E0F9002008907F
:1031100007E00021304A089842F820100898401C27
:10312000089008981628F4DB3348006801287CD101
:1031300027480068132878D10020254908602E49C7
:1031400008602548806C2449496C01EB810100EB43
:1031500041002149C96B204A926B02EB820201EBCC
:103160004201CDE900101C48006B1B49C96A01EB04
:10317000810100EB410007901748406A1649096A2F
:1031800001EB810100EB4100069013488069124970
:10319000496901EB810100EB410005900E48006890
:1031A0004FF47A7148430C49496801EBC10202EBC4
:1031B000011100EB81000849896801EB810100EBF6
:1031C00041000549C96819E09000002092000020E4
:1031D0005400002050000020D80000203C000020B7
:1031E000580000205C00002048000020B4000020AF
:1031F0004552524F522100006800002008440490BC
:1032000005A90EC9FEF7E0F8F0B3A84890F8480009
:10321000A64991F8441001EB810100EB4100C0B2D6
:10322000A24991F83C10A14A00E07BE092F83820D6
:1032300002EB820201EB4201C9B2CDE900109B48CA
:1032400090F83000994991F82C1001EB810100EBC6
:103250004100C0B20790954890F82400934991F836
:10326000201001EB810100EB4100C0B206908F48B5
:10327000007E8E49097D01EB810100EB4100C0B267
:1032800005908A48008800E025E04FF47A714843B1
:103290008649898801EBC10202EB011100EB810034
:1032A0008249098901EB810100EB41007F4989894D
:1032B000084480B2049005A90EC901F0C9F84FF680
:1032C000FF7040F23B13AA2240F21D1100900A2029
:1032D000FCF76EFF18E000207549088040F23B13B0
:1032E000AA2240F21D110A20FDF7F5F84FF47840AC
:1032F0006F4908800120AFF2081310224FF4927139
:1033000000904620FDF725FC0020089007E00021F2
:10331000664A089842F820100898401C08900898BF
:103320001428F4DB63480068012836D1624800683D
:10333000022832D10020604908605E4908605B487D
:1033400040685A49096801EB810100EB41005B4983
:1033500008604FF6FF7040F23B136E2240F21D11E1
:1033600000901E20FCF724FF1F2051490880F923FC
:103370008122C7211D20FDF7AEF8FEF711F80020CD
:10338000089007E00021494A089842F82010089860
:10339000401C089008981428F4DB4948006801286C
:1033A00077D145480068062873D10020424908605B
:1033B000434908603D48006842490968884241D154
:1033C0003A4840683F49496888423BD1374880685D
:1033D0003C498968884235D13448C0683949C96850
:1033E00088422FD13148006936490969884229D17C
:1033F0002E48406933494969884223D14FF6FF700E
:1034000040F23B13AA2240F21D1100900A20FCF763
:10341000CFFE1F2026490880AD23C8227B217820BB
:10342000FDF759F84FF6FF7021490880012026A3C7
:1034300010228C2100908820FDF78BFB012024496D
:10344000086018E000201A49088040F23B13AA22C5
:1034500040F21D110A20FDF73EF84FF47840144960
:1034600008800120AFF2782310224FF4927100906F
:103470004620FDF76EFB0020089007E000210B4A74
:10348000089842F820100898401C089008981428C2
:10349000F4DB00200F490860FEF773BD10B50E493C
:1034A0000868804700B110BDFEF746FBD800002039
:1034B000900000205000002054000020B0000020A8
:1034C0003C00002070000020554E4C4F434B000044
:1034D0006C0000205C0000209800002010B504461D
:1034E0004FF40070FE490860802008602146FD48C6
:1034F00000F024FB4FF40070F949091F086010BD6B
:1035000010B504464FF40070F54908608020091F8B
:1035100008602146F34800F011FB4FF40070F049B9
:10352000091F086010BD10B54FF40070EC49086029
:103530008020091F08600021EA4800F010FBFF21ED
:10354000E84800F0FBFA04460121E64800F007FBDA
:103550004FF40070E249091F0860204610BD70B5A5
:1035600005460C462846FFF7B9FFE0B2FFF7C8FF53
:1035700070BD10B504462046FFF7B0FFFFF7D3FF3C
:1035800010BD10B5D849087AFFF7A8FF10BD10B5D7
:10359000D549887AFFF7A2FF10BD10B504464FF455
:1035A0000070CF4908608020091F08602112CD48B3
:1035B00000F0C4FAE1B2CB4800F0C0FA4FF400705A
:1035C000C749091F086010BD70B54FF40070C449A9
:1035D000086080200860C448817AC24800F0AEFAD2
:1035E0000021C04800F0BBFA8020BD49091F0860D7
:1035F000FF21BC4800F0A2FAFF21BA4800F09EFA71
:103600000446FF21B74800F099FA05460121B54864
:1036100000F0A5FA4FF40070B149091F08604FF699
:10362000FF7000EA04242C43204670BD2DE9F041D0
:1036300004460D4616461F46AB49087BFFF74EFF72
:103640002012FFF75DFFE0B2FFF75AFF3012FFF7DD
:1036500057FFF0B2FFF754FFA349887BFFF73EFF07
:103660002812FFF74DFFE8B2FFF74AFF3812FFF7C5
:1036700047FFF8B2FFF744FFFFF783FFBDE8F08193
:1036800070B504460D462B46224629462046FFF7D4
:10369000CDFF70BD70B504460D4629462046FFF7A4
:1036A000EFFF92480088FFF778FF70BD70B50446C1
:1036B0000D4629462046FFF7E3FFFFF785FF064644
:1036C000304670BD70B5044687484088401E83B2BE
:1036D00085480088401E82B200210846FFF7A6FFF9
:1036E0004FF400707E4908608020091F08600025A3
:1036F0000FE0002608E021127A4800F01FFAE1B23C
:10370000784800F01BFA761C77480088B042F2D85F
:103710006D1C75484088A842EBD84FF40070704982
:10372000091F086070BD08B50121082001F08EFB5B
:103730004FF47070ADF8000003208DF802001020E7
:103740008DF8030069466648143801F0C3F801207B
:103750006749086008BD10B54FF480706049086083
:10376000642001F0E3FE4FF480705D49091F08609A
:10377000322001F0DBFE10BD10B504462A205A4964
:1037800088812B20C8812C2008812E20488120464A
:10379000E11704EB91718910A4EB8101524A9171F8
:1037A0001046807930B1012810D002281AD00328A1
:1037B00030D123E04FF4A0704B4908804FF4F070F3
:1037C000488048213620FFF7CAFE24E04FF4F0700D
:1037D000454908804FF4A070488028213620FFF723
:1037E000BEFE18E04FF4A0703F4908804FF4F0701F
:1037F000488088213620FFF7B2FE0CE04FF4F070CD
:10380000394908804FF4A0704880E8213620FFF73E
:10381000A6FE00E000BF00BF10BD10B500F0B2F979
:10382000FFF781FFFFF797FFF020FFF757FEC32058
:10383000FFF766FEF020FFF751FE9620FFF760FECF
:103840003620FFF74BFE4820FFF75AFE3A20FFF7DD
:1038500045FE0520FFF754FEB020FFF73FFE802015
:10386000FFF74EFEB620FFF739FE0020FFF748FEB7
:103870000220FFF745FEB520FFF730FE0220FFF7DC
:103880003FFE0320FFF73CFE0020FFF739FE042037
:10389000FFF736FEB120FFF721FE8020FFF730FE54
:1038A0001020FFF72DFEB420FFF718FE0020FFF7D1
:1038B00027FEB720FFF712FEC620FFF721FEC52026
:1038C000FFF70CFE1C20FFF71BFEE420FFF706FEAF
:1038D0003120FFF715FEE820FFF700FE402009E049
:1038E000140C014000300140300100209000002005
:1038F00098812142FFF704FE8A20FFF701FE002095
:10390000FFF7FEFD0020FFF7FBFD2920FFF7F8FD84
:103910001920FFF7F5FDA520FFF7F2FD3320FFF793
:10392000EFFDC220FFF7DAFDA720FFF7D7FDE0206B
:10393000FFF7D4FDF020FFF7E3FD0920FFF7E0FDDE
:103940001320FFF7DDFD1220FFF7DAFD1220FFF74D
:10395000D7FD2B20FFF7D4FD3C20FFF7D1FD4420FD
:10396000FFF7CEFD4B20FFF7CBFD1B20FFF7C8FD77
:103970001820FFF7C5FD1720FFF7C2FD1D20FFF738
:10398000BFFD2120FFF7BCFDE120FFF7A7FDF020E0
:10399000FFF7B6FD0920FFF7B3FD1320FFF7B0FDD9
:1039A0000C20FFF7ADFD0D20FFF7AAFD2720FFF744
:1039B000A7FD3B20FFF7A4FD4420FFF7A1FD4D200C
:1039C000FFF79EFD0B20FFF79BFD1720FFF798FDEB
:1039D0001720FFF795FD1D20FFF792FD2120FFF72F
:1039E0008FFDF020FFF77AFD3C20FFF789FDF020E6
:1039F000FFF774FD6920FFF783FD1320FFF76EFDCD
:103A00001120FFF76BFD2920FFF768FD0020FFF76D
:103A1000B3FE4FF6FF70FFF755FE10BD38B500201E
:103A20000090F020FFF75AFDC320FFF769FDF0205A
:103A3000FFF754FD9620FFF763FD4FF40070344903
:103A4000086001243BE0802031490860FB213148B7
:103A500000F074F880202E49091F086004F110005E
:103A6000C1B22C4800F06AF8802029490860D321AF
:103A7000284800F063F80021264800F070F8802004
:103A80002349091F0860FF21224800F057F8611EF2
:103A90000DF8010001211F4800F061F880201C4949
:103AA0000860FB211B4800F049F880201849091FD5
:103AB00008600021174800F041F8601CC4B2042CD3
:103AC000C1DB4FF400701249091F0860F020FFF7B6
:103AD00005FD3C20FFF714FDF020FFF7FFFC6920F7
:103AE000FFF70EFD9DF801000B498880084680888D
:103AF0004FF6FF7101EA0020074988800846808858
:103B00009DF802100843044988800846808838BD23
:103B1000140C0140003001403001002010B500F0CD
:103B20000EFA08B1012010BD024803494860002088
:103B3000F9E700000F40000898000020024600BF8F
:103B4000108900F002000028FAD0918100BF10898E
:103B500000F001000028FAD09089C0B270470288B6
:103B60004FF6C7731A400280012902D102880280F1
:103B700003E0028842F010020280028842F0400214
:103B80000280704700B587B00121052001F05EF981
:103B9000A020ADF8040003208DF8060018208DF851
:103BA000070001A91C4800F095FE4020ADF8040074
:103BB00048208DF8070003208DF8060001A916485B
:103BC00000F088FE0121080301F040F90020ADF863
:103BD00008004FF48270ADF80A000020ADF80C0028
:103BE0000220ADF80E000120ADF810004002ADF843
:103BF00012000020ADF81400ADF816000720ADF853
:103C0000180002A9054801F0ABF90121034801F0B1
:103C10004CFA07B000BD0000000801400030014030
:103C200010B5012001F09EFC10BD08B501210C204B
:103C300001F00CF94FF40070ADF8000010208DF881
:103C4000030003208DF8020069468C4800F042FE14
:103C50002020ADF800006946894800F03BFE0120B5
:103C6000884908608849C1F8A40108BD10B5834897
:103C7000001D006820F0F0008049091D086008461A
:103C8000006840F0300008600120804908608049E9
:103C9000C1F89401FFF7C4FF00207C490860FFF7DA
:103CA000BFFF00207A49C1F8940110BD10B57348D8
:103CB000001D006820F0F0007049091D08600846EA
:103CC000006840F03000086000206E4908606E49CE
:103CD000C1F8A401FFF7A4FF01206A490860FFF7BB
:103CE0009FFF01206849C1F8A40110BD10B5002450
:103CF0006248001D006820F0F0006049091D08605E
:103D00000846006840F08000086001205F490860B4
:103D100001F028FC01205E49C1F8940101F022FC69
:103D200007E0601CC4B2FA2C03DDFFF7BFFF0120DF
:103D300010BD5648803800680028F2D1514908600B
:103D400000BFF5E710B500204E4908604B48001D44
:103D5000006820F0F0004949091D08600846006825
:103D600040F03000086000204749C1F8A401FFF787
:103D700057FF012043490860FFF752FF00204449E4
:103D8000C1F8940110BD10B500203E4908603B48C1
:103D9000001D006820F0F0003849091D0860084641
:103DA000006840F03000086001203749C1F8A401E4
:103DB000FFF736FF012033490860FFF731FF00208D
:103DC0003349C1F8940110BD70B504462B48001D5D
:103DD000006820F0F0002949091D086008460068C5
:103DE00040F030000860002026490860002511E0FE
:103DF000E009264908606006040E01202449C1F844
:103E00009401FFF70DFF00201E490860FFF708FF2F
:103E1000681CC5B2082DEBDB70BD70B505460024EB
:103E20001648001D006820F0F0001449091D0860C4
:103E30000846006840F080000860002613E000207B
:103E400010490860032001F08DFB01201049C1F8E2
:103E500094016006040E0D488038006808B1601CAB
:103E6000C4B2701CC6B2082EE9DB15B9FFF78BFF90
:103E700001E0FFF767FF204670BD00000008014029
:103E8000000C01409481214200002142A401214202
:103E9000008021422DE9F04105460E4617464FF0BD
:103EA0000008FFF7E3FE7020FFF78EFFFFF71EFF0D
:103EB000E8B2FFF789FFFFF719FF00240BE0305D40
:103EC000FFF782FFFFF712FF8046B8F1000F00D026
:103ED00003E0601CC4B2BC42F1DB00BFFFF7E6FEAA
:103EE0004046BDE8F0812DE9F04106460F461546F3
:103EF000FFF7BCFE7020FFF767FFFFF7F7FEF0B299
:103F0000FFF762FFFFF7F2FEFFF7B0FE7120FFF749
:103F10005BFFFFF7EBFE00240BE0691EA14201D01E
:103F2000012100E000210846FFF777FF3855601CAB
:103F3000C4B2AC42F1DBFFF7B9FEBDE8F0811CB5BD
:103F40000121042000F082FF4FF48060ADF80000F2
:103F500010208DF8030003208DF802006946A54863
:103F600000F0B8FC4FF48061A24800F060FD4FF40F
:103F70008070ADF8000048208DF8030069469D4828
:103F800000F0A8FC4FF480719A4800F050FDFFF754
:103F90004CFE0020984908600A2001F0C7FA012071
:103FA0009649C1F8A8014FF4FA7001F0BFFA012256
:103FB00001A9A820FFF797FF9DF80400112801D060
:103FC00001201CBD022201A99F20FFF78CFF9DF854
:103FD0000400262801D00120F3E79DF8050048B130
:103FE0009DF80500012805D09DF80500022801D0A4
:103FF0000120E6E7012201A9A320FFF774FF9DF845
:104000000400642801D00120DBE70020D9E77CB55B
:10401000002400267A480078401C79490870084638
:1040200000780A2190FBF1F201FB120018B17448EC
:1040300000780A287EDA012269460220FFF753FF42
:104040009DF80000002875D09DF800000328F1DAE3
:104050009DF80010FF208840C5B2E843C0B240F090
:10406000C00068490874002492E0674931F81400E0
:10407000042201A9FFF737FF6248007C0121A1401B
:10408000084000287DD06148807930B101281DD0DA
:10409000022838D0032878D158E09DF805009DF813
:1040A000041001F00F0100EB01205649083121F8FE
:1040B00014009DF807009DF8061001F00F0100EBB9
:1040C000012150480C3020F814105EE09DF80500E6
:1040D0009DF8041001F00F0100EB01204B494988C5
:1040E000081A81B247480C3020F814109DF80700D8
:1040F0009DF8061001F00F0100EB01204149083145
:1041000021F8140041E09DF805009DF8041001F02D
:104110000F0100EB01203D490988081A81B2394896
:10412000083020F814109DF807009DF8061001F0E3
:104130000F0100E03BE000EB012034494988081AF8
:1041400081B230480C3020F814101EE09DF80500B4
:104150009DF8041001F00F0100EB012029490C31FA
:1041600021F814009DF807009DF8061001F00F01DA
:1041700000EB012025490988081A81B2214808303E
:1041800000E003E020F8141000BF00BF601CC4B2C0
:10419000022CFFF66AAF01261A48008920B9194897
:1041A000808908B9002000900020154908709DF80A
:1041B0000000A8B91348007C00F0800030B111481D
:1041C000007C20F080000F49087409E04FF6FF7072
:1041D0000C49088188810846007C00F0E0000874E2
:1041E00007480078F02802DD0A20054908703046AB
:1041F0007CBD000000080140A801214200002142CE
:10420000AC00002098000020687F000830010020EA
:1042100008B50121042000F019FE10208DF80300DC
:104220000720ADF8000003208DF802006946084819
:1042300000F050FB08BD10B50721054800F0F7FB62
:1042400010BD10B50721024800F0F3FB10BD0000BF
:104250000008014008B503208DF8000000208DF80B
:1042600001008DF8020001208DF80300684600F07F
:1042700068FA08BDFE480078FE490870FC4840789E
:104280004870FB4880788870F94880888880F848B2
:1042900080798871F648C079C871F548007A08724B
:1042A0000846C079401CC8717047F0B503460C46FB
:1042B0001546642093FBF0F0C6B2642093FBF0F740
:1042C00000FB1730C1B2132E02DD01F16400C1B250
:1042D0000846CF1701EB977701EBA707BAB2072083
:1042E00092FBF0F700FB172082B25719601EDFF82F
:1042F00088C31CF80000384482B2CF1701EB9777CF
:10430000BF10A1EB87071FB9032C01DA501E82B240
:10431000072092FBF0F700FB1720C0B2F0BD01466A
:10432000CA1701EB92729210A1EB820292B964203B
:1043300091FBF0F200FB121050B94FF4C87091FBE2
:10434000F0F200FB121008B9012070470020FCE7D2
:104350000120FAE70020F8E770B50024002500F0FE
:10436000E1FFC649086008460068C549B0FBF1F4A2
:10437000C4480088A0423CD0C2490C8040F2B275CB
:1043800010E02846FFF7CBFF40B1B4F5B77F02D36A
:10439000A4F5B77404E0681C85B206E0A4F26D14BD
:1043A000681C85B2B4F5B67FEBD800BFB0488580F5
:1043B000002516E0AE498888FFF7B1FF30B1012D26
:1043C00004D11D2C01D31D3C09E00CE0AE48405D3A
:1043D000A04203D8AC48405D241A00E003E0681C0A
:1043E00085B21C2CE6D200BF681CA1498871601CF4
:1043F000C871A2480068A249B0FBF1F201FB1204A7
:104400004FF46160B4FBF0F0994908704FF46160BB
:10441000B4FBF0F100FB11403C21B0FBF1F09449FA
:1044200048704FF46160B4FBF0F100FB11403C2197
:10443000B0FBF1F201FB12008D4988700B46DA796E
:1044400099799888FFF731FF89490872002070BD7B
:104450002DE9F05F06460F4690469946DDE90AAB26
:10446000002440F2B270864203DB40F633008642FD
:1044700002DD0120BDE8F09F40F2B2750AE0284657
:10448000FFF74DFF10B18148044401E08048044427
:10449000681C85B2B542F2DB781EC7B2002510E079
:1044A0007948405D40F2A321484304EBC0143046F4
:1044B000FFF735FF18B1012D01D171480444681C84
:1044C00085B2BD42ECDBA8F1010040F2A3214843D4
:1044D00004EBC014C9EB4910C0EB092004EB001435
:1044E000CAEB0A1004EB80045C4401214FF0C05079
:1044F00000F0B9FC012000F0A4FF204600F01BFFF3
:1045000000F04CFF0020B5E71CB5002401214FF05E
:10451000C05000F0A8FC012000F093FF042000F040
:10452000B4FE45F25301884240D000F079FE0120EC
:1045300000F0F9FB04E0601CC4B20A2000F0F6FFB2
:10454000412000F058FB08B9FA2CF4DBFA2C01DB0F
:1045500001201CBD4FF4807000F001FC012000F030
:1045600004FC00F01BFF00F022FF0121084600F0D0
:10457000B9FE00F013FF00F0C2FE47F6FF7000F036
:10458000E7FE00F00BFF1E20002112231622CDE9CA
:10459000001005214FF4FD60FFF75AFF00F0B8FE50
:1045A00045F25301042000F064FE07E000F0FFFE36
:1045B0000121084600F096FE00F0F0FEFFF74AFEEB
:1045C000FFF7CAFEFFF756FE0020C2E710B5012034
:1045D00000F012FF08B1FFF7BFFE022000F00CFF51
:1045E00020B1022000F018FFFFF7B6FE052000F012
:1045F00013FF00F0D3FE10BD2DE9F05F06460F4615
:1046000090469946DDE90AAB002440F2B27086423A
:1046100003DB40F63300864202DD0120BDE8F09F57
:1046200040F2B2750AE02846FFF779FE10B117484C
:10463000044401E016480444681C85B2B542F2DB2C
:10464000781EC7B2002510E00F48405D40F2A3215C
:10465000484304EBC0143046FFF761FE18B1012D4A
:1046600001D107480444681C85B2BD42ECDB11E06F
:10467000400100204A0100206C7F0008B8000020A3
:1046800080510100BC000020787F00080085E20115
:104690008033E101A8F1010040F2A321484304EB7B
:1046A000C014C9EB4910C0EB092004EB0014CAEB9D
:1046B0000A1004EB80045C4401214FF0C05000F06C
:1046C000D2FB012000F0BDFE204600F04FFE00F0BE
:1046D00065FE0020A2E7F0B505AC70CCDFF820C085
:1046E000ACF804008CF806108CF807208CF8003029
:1046F0008CF801408CF802508CF80860F0BD000086
:104700004A01002008480047FEE7FEE7FEE7FEE713
:10471000FEE7FEE7FEE7FEE7FEE7FEE703480449A3
:10472000024A044B70470000ED000008C001002061
:10473000C0030020C001002031490143314A11600B
:10474000704770B5002100230F22C47804B32D4CAC
:10475000246804F4E064C4F5E064210AC1F10403B0
:10476000CA40447804FA03F18478144021430901D3
:10477000254C0678A155047804F01F050124AC40AF
:1047800005786D11AD0005F1E025C5F8004109E09F
:10479000047804F01F050124AC401C4D0678761106
:1047A00045F8264070BD1A4A0A400243154B1B1FAC
:1047B0001A60704739B1134A121D12680243114B37
:1047C0001B1D1A6006E00F4A121D126882430D4B32
:1047D0001B1D1A607047042808D14FF0E0210969B9
:1047E00041F004014FF0E022116107E04FF0E021B9
:1047F000096921F004014FF0E022116170470000C7
:104800000000FA050CED00E000E400E080E100E0CB
:1048100080FFFF1F10B50446CC48844208D1012117
:10482000042000F02DFB0021042000F029FB46E0CD
:10483000C748844208D10121082000F021FB002153
:10484000082000F01DFB3AE0C248844208D1012153
:10485000102000F015FB0021102000F011FB2EE0CD
:10486000BD48844208D10121202000F009FB00212D
:10487000202000F005FB22E0B848844208D1012145
:10488000402000F0FDFA0021402000F0F9FA16E087
:10489000B348844208D10121802000F0F1FA0021C0
:1048A000802000F0EDFA0AE0AE48844207D10121F1
:1048B000801500F0E5FA0021A01500F0E1FA10BD26
:1048C00010B50121084600F0DBFA0021012000F0BC
:1048D000D7FA10BD2DE9F041024600250026002040
:1048E00000230024002791F803C00CF00F0591F875
:1048F00003C00CF0100CBCF1000F03D091F802C003
:104900004CEA050591F800C0BCF1000F31D01468E5
:1049100000202BE04FF0010C0CFA00F3B1F800C0BE
:104920000CEA03069E4220D183004FF00F0C0CFAD4
:1049300003F7BC4305FA03FC4CEA040491F803C0F6
:10494000BCF1280F06D14FF0010C0CFA00FCC2F8A4
:1049500014C00AE091F803C0BCF1480F05D14FF034
:10496000010C0CFA00FCC2F810C0401C0828D1D37E
:104970001460B1F800C0BCF1FF0F34DD54680020B2
:104980002EE000F1080C4FF0010808FA0CF3B1F822
:1049900000C00CEA03069E4221D183004FF00F0CA9
:1049A0000CFA03F7BC4305FA03FC4CEA040491F843
:1049B00003C0BCF1280F05D100F1080C08FA0CF86F
:1049C000C2F8148091F803C0BCF1480F07D100F180
:1049D000080C4FF0010808FA0CF8C2F81080401CCF
:1049E0000828CED35460BDE8F0814FF6FF710180F6
:1049F000022181700421C170704702460020936833
:104A00000B400BB1012000E0002070470146886890
:104A100080B2704702460020D3680B400BB10120E2
:104A200000E0002070470146C86880B2704701610D
:104A30007047416170470AB1016100E04161704710
:104A4000C16070474FF480320A43826181618261A4
:104A500082698269704702460020434B18684FF60E
:104A60008073184040EA021008433F4B18607047BB
:104A70003E49C8617047F0B50A4600230024002172
:104A8000002500F00046B6F1004F02D1364EF16924
:104A900001E0354E7168C0F3034583B200F440165F
:104AA000B6F5401F08D121F070612F4E766826F0D0
:104AB00070662D4F7E6012E000F48016B6F5801F00
:104AC00006D1032606FA05F4A14341F0706106E021
:104AD000460D360103FA06F6B14341F0706122B18A
:104AE000460D360103FA06F6314300F00046B6F1F2
:104AF000004F02D11C4EF16101E01B4E7160F0BD10
:104B000030B500228B071C0F0F2303FA04F2164B5B
:104B100008338C1053F824309343134C08348D1011
:104B200044F8253023468C1053F824308C07240F8A
:104B300000FA04F423430C4C08348D1044F825305B
:104B400030BD0A49DC3108607047000000080140B0
:104B5000000C014000100140001401400018014009
:104B6000001C0140002001400000014000002042E4
:104B7000DF48006840F00100DD49086008464068F1
:104B8000DC490840DA49486008460068DA490840CC
:104B9000D74908600846006820F48020086008466D
:104BA000406820F4FE0048604FF41F0088607047A2
:104BB000CF49096821F48031CD4A11601146096856
:104BC00021F480211160B0F5803F03D0B0F5802F33
:104BD0000ED106E0C649096841F48031C44A11602B
:104BE00007E0C349096841F4A021C14A116000E00F
:104BF00000BF00BF704710B501460022002300200F
:104C00004A11012A02D1BA4C236806E0022A02D1D5
:104C1000B74C236A01E0B64C636A01F01F0201241D
:104C200094401C400CB1012000E0002010BD38B5BC
:104C3000002000900024002500BF3120FFF7DBFF9B
:104C400005460098401C00900098B0F5A06F01D078
:104C5000002DF2D03120FFF7CEFF08B1012400E093
:104C60000024204638BD01460020A14A106820F0EB
:104C7000F80040EAC10010607047A0490860704722
:104C8000024600209A4B586820F47C1042EA010347
:104C90001843974B5860704798490866704701461B
:104CA0000020934A506820F003000843506070478A
:104CB0008F48406800F00C007047014600208C4A85
:104CC000506820F0F0000843506070470146002013
:104CD000874A506820F4E0600843506070470146FE
:104CE0000020834A506820F4605040EAC1005060C0
:104CF000704729B17E4A527A02437D4B5A7204E0D2
:104D00007B4A527A82437A4B5A7270477B49D83138
:104D10000860704701460020754A506820F4404002
:104D20000843506070470021714A20321170704A68
:104D300082F82010012802D004280AD104E00121C1
:104D40006B4A2032117005E00521694A203211704A
:104D500000E000BF00BF70476949086070476449C0
:104D6000096A0143624A1162704765494439086023
:104D7000704730B500210022002400235C4D6D688F
:104D800005F00C0121B1042905D0082923D105E043
:104D90005C4D056022E05B4D05601FE0544D6D6881
:104DA00005F47012524D6D6805F48034022505EB50
:104DB00092421CB9544D554305600BE04C4D6D6853
:104DC00005F400351DB1504D5543056002E04D4DD1
:104DD0005543056002E04B4D056000BF00BF444DE8
:104DE0006D6805F0F0010909484D6B5C0568DD4010
:104DF00045603F4D6D6805F4E061090A434D6B5C09
:104E00004568DD4085603A4D6D6805F46051C90A1A
:104E10003E4D6B5C4568DD40C560354D6D6805F401
:104E20004041890B3A4D6B5CC568B5FBF3F50561F4
:104E300030BD29B12E4A526902432D4B5A6104E01C
:104E40002B4A526982432A4B5A61704729B1284A3A
:104E500092690243264B9A6104E0254A9269824393
:104E6000234B9A61704729B1214AD2690243204BF2
:104E7000DA6104E01E4AD26982431D4BDA61704751
:104E800029B11B4AD2680243194BDA6004E0184A80
:104E9000D2688243164BDA60704729B1144A12690E
:104EA0000243134B1A6104E0114A12698243104B0A
:104EB0001A61704712494039086070470F49C86449
:104EC00070470B49C87170470948406A40F08070CC
:104ED00007494862704701460020054A92680A4027
:104EE0000AB1012000E00020704701498872704734
:104EF000001002400000FFF8FFFFF6FE00004242F3
:104F00008004424200127A0000093D00BE000020E9
:104F1000CE00002010B50446BE48844208D10121CD
:104F20008014FFF7ADFF0021A014FFF7A9FF16E0E2
:104F3000B948844208D101210014FFF7AEFF0021D7
:104F40002014FFF7AAFF0AE0B448844207D10121E8
:104F5000C013FFF7A2FF0021E013FFF79EFF10BD73
:104F600010B50022028802F441520B884C8823437A
:104F70008C882343CC8823430C8923434C892343C7
:104F80008C892343CC8923431A430280838B4FF2BD
:104F9000FF74234083830B8A038210BD2DE9F04FF9
:104FA00085B005460C464FF0000902274FF0000877
:104FB0004FF0010B0026B246A88B4FF2400108408B
:104FC000A88302202884B5F81C90A068022801D18B
:104FD00000BF38E0A08810B94FF0010B01E04FF09E
:104FE000020B8D48854200D100E000BF6846FFF704
:104FF000C0FEDDF800A0E088B0F5007F0AD14FEADE
:105000001A2000EB80004000A168B0FBF1F0401DC9
:1050100086B20BE04FEA4B10BAFBF0F000EB8000D9
:105020004000A168B0FBF1F0401D86B20A20B6FB3B
:10503000F0F606F00108A6EB0800C0F34F074FF6A4
:10504000FF7000EA0828022F01DBFF2F02DD022794
:105050004FF00008E08840EA080038432884A08820
:10506000A1890843618808432188084340F400600F
:1050700040EA0909A5F81C9005B0BDE8F08F0021B1
:10508000018041808180C180018141818181C18114
:105090000721018270470021018041808180C18009
:1050A0000221816000218181704721B1028842F094
:1050B0004002028004E002884FF6BF731A4002806B
:1050C000704721B1828B42F48062828304E0828B3C
:1050D0004FF6FF331A408283704730B50024002317
:1050E0000C110125A540ABB21AB185881D438580FE
:1050F00002E085889D43858030BD1AB183880B43CB
:10510000838002E083888B4383807047818170476E
:105110000146888970474FF6FF62914204D00288A9
:1051200042F48072028004E002884FF6FF631A4066
:105130000280704721B1828842F00402828004E03C
:1051400082884FF6FB731A408280704702884FF2C4
:10515000FF731A40028002880A4302807047018868
:1051600041F480510180704721B1028842F400521D
:10517000028004E002884DF6FF731A4002807047F7
:1051800002460020012901D0108B00E0908A704770
:105190000146088A7047B1F5804F04D1028842F475
:1051A0008042028004E002884BF6FF731A400280BE
:1051B00070470246002013890B400BB1012000E02C
:1051C00000207047CA4302817047F0B502460020B4
:1051D00000240023002501F00F070126BE40B4B2D1
:1051E0000B1101269E40B3B2968806EA0305168984
:1051F000264016B10DB1012000E00020F0BD10B531
:10520000002201F00F040123A3409AB2D34303818B
:1052100010BD00000030014000380040003C00405C
:1052200010B50120FFF746FE0020FFF743FE10BD3A
:105230002A49086070472949091F086070472749B3
:1052400084310860704701460020254A10884FF6D7
:105250007F4210400843224A1080704701460020D8
:105260001F4A10884FF68072104008431C4A108075
:10527000704708B500220092194A2C3A0092009A11
:1052800002440092009A116008BD08B50146002052
:10529000009013482C380090009808440090009823
:1052A000008808BD0D489C300068C0B270470C48AB
:1052B0000830008840F00100094908310880704733
:1052C0000648A0300068C0B2704705480830008822
:1052D00040F00200024908310880704704860D4200
:1052E0002C6C004029B1504A128802434E4B1A8060
:1052F00004E04D4A128882434B4B1A8070474A485B
:10530000001D008840F010004749091D08807047C3
:105310004548001D00884FF6EF7108404249091DBD
:1053200008807047002140481C300188001F008819
:1053300041EA0040704700B50246FFF7E0FF100C5D
:10534000394918310880091D0A80FFF7E1FF00BDC7
:1053500000B50246FFF7D3FFC2F3034032490831DC
:105360000880091D0A80FFF7D3FF00BD00B5024683
:10537000FFF7C5FF100C2C4920310880091D0A8059
:10538000FFF7C6FF00BD0020274910310988090733
:10539000080B2549143109880843704700BF22488B
:1053A000001D008800F020000028F8D070471E483B
:1053B000001D00884FF6F77108401B49091D088041
:1053C00000BF1948001D008800F008000028F8D030
:1053D000704701460020144A121D12880A400AB183
:1053E000012000E0002070470F49091D0988814312
:1053F0000D4A121D11807047014600200A4A121DF5
:1054000012880A40D0B2084A12880A4012B108B184
:10541000012000E0002070470349091D09888143ED
:10542000014A121D118070470028004010B501216B
:105430000807FFF732FD00214FF08050FFF72DFDE8
:1054400010BD2A4908627047284908617047014623
:105450000020274A106820F0E000084310607047E1
:105460002249A0310860704710B502460020204B49
:10547000186820F00300104318601E4B1B6843F0AF
:1054800004031C4C2360012901D130BF00E020BF80
:10549000184B1B6823F00403164C236010BD1448FE
:1054A000006840F00400124908600846006840F0B7
:1054B000020008600F48006840F004000D490860D1
:1054C00000BF00BF30BF704701460020084A526845
:1054D0000A400AB1012000E0002070470449096831
:1054E00041EA8001024A11607047000000000E424C
:1054F0000070004010ED00E010B504466FF00400AD
:10550000FFF769F9E11704EB5171C1F3C701234AB1
:1055100011701046007800EB4001C1EBC0104FF64F
:10552000FF7101EAC0001E49088010BD01461C4AF7
:1055300012884A434FF0E0235A6100229A61012207
:105540001A6100BF4FF0E022106900F001021AB1A9
:1055500000F48032002AF5D000224FF0E0231A61D7
:105560009A61704701460D4A12784A434FF0E02392
:105570005A6100229A6101221A6100BF4FF0E022B5
:10558000106900F001021AB100F48032002AF5D04F
:1055900000224FF0E0231A619A617047D200002088
:1055A000D40000200FB41CB5074B06AA7B44694603
:1055B0000090059800F0E5F90020694600F0F4F944
:1055C0001CBC5DF814FB0000F903000070B5044634
:1055D00085690068C10601D5302600E02026C00795
:1055E00007D070BDD4E9012130469047206A401CA5
:1055F00020626D1EF6D570BD70B5044685690078D1
:10560000C00707D170BDD4E9012120209047206A4E
:10561000401C20626D1EF6D570BD70B50C46054667
:10562000012A05D02878800600D5EA69002302E027
:10563000012305E05B1C934202D2E05C0028F9D113
:10564000A869E618C01AA861286A18442862284682
:10565000FFF7BCFF04E0D5E9012114F8010B9047E6
:10566000B442F8D32846FFF7C7FF70BD2DE9F041DB
:105670000646002410687529314616A510D0AFF3F0
:105680000080002802DA404213A507E031688A074B
:1056900001D512A502E0490704D511A5012401E0B6
:1056A000AFF3008000210A2206F1240709E0B0FBD5
:1056B000F2FCB0FBF2F302FB1C00303078541846C9
:1056C000491C0028F3D123462A463046BDE8F04164
:1056D00000F0F8B8000000002D0000002B000000D2
:1056E000200000002DE9F05F894604464FF0000AD3
:1056F000DFF824B1FB44C0F820A02046E1688847C9
:1057000000287DD0252806D0D4E901219047206AC1
:10571000401C2062F1E700255F462046E16888478B
:105720002028064607DB312E05D2B81910F8200CC8
:1057300008B10543F1E7A80701D525F00405C4F831
:105740001CA00027C4F818A02A2E09D0304600F06B
:1057500080F938B304EB8708303EC8F8186019E0C8
:1057600059F8041B204604EB87029161E1688847E1
:10577000012F064618D1E069002820DA25F020051F
:105780001DE0D8F8180000EB800006EB4000303830
:10579000C8F818002046E1688847064600F059F925
:1057A0000028EED1012F0AD02E2E08D12046E16824
:1057B00088477F1C0646022F45F02005C4DBA06900
:1057C000002803DA404245F00105A061E80701D056
:1057D00025F01005A6B1A6F14100192802D82036FF
:1057E00045F400654A463146204625604D46FAF7A5
:1057F000B7FC60B1012807D0ED1D25F0070000E0DF
:1058000007E000F1080978E705F1040975E730467B
:105810007AE7206ABDE8F09F8C28000010B5431C91
:1058200002E010F8011B71B18107FAD14FF001328B
:1058300002C88C1A8C4314EAC211F9D0C01A0A06A5
:1058400003D0C01E10BDC01A10BD0A0401D0801EB6
:1058500010BD0902FCD0401E10BD10B5203AC0F0AA
:105860000B80B1E81850203AA0E81850B1E8185061
:10587000A0E81850BFF4F5AF5FEA027C24BFB1E89E
:105880001850A0E8185044BF18C918C0BDE810400F
:105890005FEA827C24BF51F8043B40F8043B08BF18
:1058A0007047D20728BF31F8023B48BF11F8012BDF
:1058B00028BF20F8023B48BF00F8012B7047704713
:1058C000704770472DE9F0470D46994692460446C9
:1058D00000F124080168880604D5E06921F0100170
:1058E000216000E00120A84201DD471B00E0002705
:1058F000A1697A1902EB0900081AA0612078C00694
:1059000002D42046FFF762FE002608E0D4E9012118
:105910001AF806009047206A401C761C20624E450B
:10592000F4DB2078C0060AD52046FFF74FFE06E0DC
:10593000D4E9012130209047206A401C2062381EA3
:10594000A7F10107F4DC07E0D4E9012118F805000C
:105950009047206A401C2062281EA5F10105F3DC57
:105960002046FFF749FE2078000602D50220BDE858
:10597000F0870120FBE7000001694A1C02610878FA
:10598000704700B58FB0CDE901310021059105497F
:105990007944CDE9031011466846FFF7A3FE0FB026
:1059A00000BD0000E5FFFFFF0A6802F8010B0A6076
:1059B000704710B5436913B1AFF3008001E0FFF702
:1059C0002CFE012010BD127800F124010A70002283
:1059D0004A700122EDE711684FF0FF32E9E77546A2
:1059E00000F02CF8AE4605006946534620F007004B
:1059F000854618B020B5FEF791FEBDE820404FF077
:105A000000064FF000074FF000084FF0000B21F0A8
:105A10000701AC46ACE8C009ACE8C009ACE8C00975
:105A2000ACE8C0098D46704710B50446AFF300805E
:105A30002046BDE81040FAF7A8BB000000487047B8
:105A40006001002001491820ABBEFEE726000200DD
:105A5000704730380A2801D2012070470020704773
:105A6000000000000000000000000000000004042E
:105A7000040404040004000000140A0A00000000EA
:105A800000000000000014143F140A3F0A0A00003E
:105A900000041E1505060C14150F04000000121555
:105AA0000D0A142C2A1200000000040A0A1E151503
:105AB00009360000000202010000000000000000A2
:105AC0000020100808080808081020000002040838
:105AD000080808080804020000000004150E0E154E
